{
  "_format": "hh-sol-artifact-1",
  "contractName": "SecureMediChain",
  "sourceName": "contracts/SecureMediChain.sol",
  "abi": [
    {
      "inputs": [],
      "stateMutability": "nonpayable",
      "type": "constructor"
    },
    {
      "inputs": [
        {
          "internalType": "address",
          "name": "owner",
          "type": "address"
        }
      ],
      "name": "OwnableInvalidOwner",
      "type": "error"
    },
    {
      "inputs": [
        {
          "internalType": "address",
          "name": "account",
          "type": "address"
        }
      ],
      "name": "OwnableUnauthorizedAccount",
      "type": "error"
    },
    {
      "anonymous": false,
      "inputs": [
        {
          "indexed": true,
          "internalType": "address",
          "name": "previousOwner",
          "type": "address"
        },
        {
          "indexed": true,
          "internalType": "address",
          "name": "newOwner",
          "type": "address"
        }
      ],
      "name": "OwnershipTransferred",
      "type": "event"
    },
    {
      "anonymous": false,
      "inputs": [
        {
          "indexed": false,
          "internalType": "address",
          "name": "_doctorAddress",
          "type": "address"
        }
      ],
      "name": "RegisteredAsDoctor",
      "type": "event"
    },
    {
      "anonymous": false,
      "inputs": [
        {
          "indexed": false,
          "internalType": "address",
          "name": "_pharmacistAddress",
          "type": "address"
        }
      ],
      "name": "RegisteredAsPharmacist",
      "type": "event"
    },
    {
      "anonymous": false,
      "inputs": [
        {
          "indexed": false,
          "internalType": "address",
          "name": "_doctorAddress",
          "type": "address"
        }
      ],
      "name": "RemovedFromDoctorList",
      "type": "event"
    },
    {
      "anonymous": false,
      "inputs": [
        {
          "indexed": false,
          "internalType": "address",
          "name": "_pharmacistAddress",
          "type": "address"
        }
      ],
      "name": "RemovedFromPharmacistList",
      "type": "event"
    },
    {
      "inputs": [
        {
          "internalType": "address",
          "name": "_doctorAddress",
          "type": "address"
        }
      ],
      "name": "addDoctor",
      "outputs": [],
      "stateMutability": "nonpayable",
      "type": "function"
    },
    {
      "inputs": [
        {
          "internalType": "address",
          "name": "_pharmacistAddress",
          "type": "address"
        }
      ],
      "name": "addPharmacist",
      "outputs": [],
      "stateMutability": "nonpayable",
      "type": "function"
    },
    {
      "inputs": [
        {
          "internalType": "address",
          "name": "_doctorAddress",
          "type": "address"
        }
      ],
      "name": "checkDoctorWhitelist",
      "outputs": [
        {
          "internalType": "bool",
          "name": "",
          "type": "bool"
        }
      ],
      "stateMutability": "view",
      "type": "function"
    },
    {
      "inputs": [
        {
          "internalType": "address",
          "name": "_pharmacistAddress",
          "type": "address"
        }
      ],
      "name": "checkPharmacistWhitelist",
      "outputs": [
        {
          "internalType": "bool",
          "name": "",
          "type": "bool"
        }
      ],
      "stateMutability": "view",
      "type": "function"
    },
    {
      "inputs": [
        {
          "internalType": "address",
          "name": "_patientAddress",
          "type": "address"
        },
        {
          "internalType": "bytes32",
          "name": "_prescriptionHash",
          "type": "bytes32"
        },
        {
          "internalType": "uint256",
          "name": "_deliveryDate",
          "type": "uint256"
        }
      ],
      "name": "createNewPrescriptionData",
      "outputs": [],
      "stateMutability": "nonpayable",
      "type": "function"
    },
    {
      "inputs": [
        {
          "internalType": "address",
          "name": "",
          "type": "address"
        }
      ],
      "name": "doctors",
      "outputs": [
        {
          "internalType": "bool",
          "name": "",
          "type": "bool"
        }
      ],
      "stateMutability": "view",
      "type": "function"
    },
    {
      "inputs": [
        {
          "internalType": "address",
          "name": "_patientAddress",
          "type": "address"
        }
      ],
      "name": "getPrescriptionData",
      "outputs": [
        {
          "components": [
            {
              "internalType": "bytes32",
              "name": "prescriptionHash",
              "type": "bytes32"
            },
            {
              "internalType": "uint256",
              "name": "deliveryDate",
              "type": "uint256"
            },
            {
              "internalType": "bool",
              "name": "hasBeenProcessed",
              "type": "bool"
            },
            {
              "internalType": "bool",
              "name": "prescriptionExist",
              "type": "bool"
            }
          ],
          "internalType": "struct SecureMediChain.PrescriptionData",
          "name": "",
          "type": "tuple"
        }
      ],
      "stateMutability": "view",
      "type": "function"
    },
    {
      "inputs": [],
      "name": "owner",
      "outputs": [
        {
          "internalType": "address",
          "name": "",
          "type": "address"
        }
      ],
      "stateMutability": "view",
      "type": "function"
    },
    {
      "inputs": [
        {
          "internalType": "address",
          "name": "",
          "type": "address"
        }
      ],
      "name": "pharmacists",
      "outputs": [
        {
          "internalType": "bool",
          "name": "",
          "type": "bool"
        }
      ],
      "stateMutability": "view",
      "type": "function"
    },
    {
      "inputs": [
        {
          "internalType": "address",
          "name": "",
          "type": "address"
        }
      ],
      "name": "prescriptions",
      "outputs": [
        {
          "internalType": "bytes32",
          "name": "prescriptionHash",
          "type": "bytes32"
        },
        {
          "internalType": "uint256",
          "name": "deliveryDate",
          "type": "uint256"
        },
        {
          "internalType": "bool",
          "name": "hasBeenProcessed",
          "type": "bool"
        },
        {
          "internalType": "bool",
          "name": "prescriptionExist",
          "type": "bool"
        }
      ],
      "stateMutability": "view",
      "type": "function"
    },
    {
      "inputs": [
        {
          "internalType": "address",
          "name": "_doctorAddress",
          "type": "address"
        }
      ],
      "name": "removeDoctor",
      "outputs": [],
      "stateMutability": "nonpayable",
      "type": "function"
    },
    {
      "inputs": [
        {
          "internalType": "address",
          "name": "_pharmacistAddress",
          "type": "address"
        }
      ],
      "name": "removePharmacist",
      "outputs": [],
      "stateMutability": "nonpayable",
      "type": "function"
    },
    {
      "inputs": [],
      "name": "renounceOwnership",
      "outputs": [],
      "stateMutability": "nonpayable",
      "type": "function"
    },
    {
      "inputs": [
        {
          "internalType": "address",
          "name": "_patientAddress",
          "type": "address"
        }
      ],
      "name": "setPrescriptionAsProcessed",
      "outputs": [],
      "stateMutability": "nonpayable",
      "type": "function"
    },
    {
      "inputs": [
        {
          "internalType": "address",
          "name": "newOwner",
          "type": "address"
        }
      ],
      "name": "transferOwnership",
      "outputs": [],
      "stateMutability": "nonpayable",
      "type": "function"
    }
  ],
  "bytecode": "0x60806040523480156200001157600080fd5b5033600073ffffffffffffffffffffffffffffffffffffffff168173ffffffffffffffffffffffffffffffffffffffff1603620000885760006040517f1e4fbdf70000000000000000000000000000000000000000000000000000000081526004016200007f9190620001a9565b60405180910390fd5b6200009981620000a060201b60201c565b50620001c6565b60008060009054906101000a900473ffffffffffffffffffffffffffffffffffffffff169050816000806101000a81548173ffffffffffffffffffffffffffffffffffffffff021916908373ffffffffffffffffffffffffffffffffffffffff1602179055508173ffffffffffffffffffffffffffffffffffffffff168173ffffffffffffffffffffffffffffffffffffffff167f8be0079c531659141344cd1fd0a4f28419497f9722a3daafe3b4186f6b6457e060405160405180910390a35050565b600073ffffffffffffffffffffffffffffffffffffffff82169050919050565b6000620001918262000164565b9050919050565b620001a38162000184565b82525050565b6000602082019050620001c0600083018462000198565b92915050565b6113cb80620001d66000396000f3fe608060405234801561001057600080fd5b50600436106100f55760003560e01c806398fc90e911610097578063c82999b111610066578063c82999b114610285578063d9c54dcd146102a1578063f149c2ec146102bd578063f2fde38b146102ed576100f5565b806398fc90e9146101ed578063a9583c2214610209578063c09e269314610239578063c5e8891914610255576100f5565b8063858d587f116100d3578063858d587f146101505780638ca0503a1461016c5780638da5cb5b1461019c57806397bd8fa2146101ba576100f5565b80631abf575a146100fa5780634780468f1461012a578063715018a614610146575b600080fd5b610114600480360381019061010f9190610ed0565b610309565b6040516101219190610f18565b60405180910390f35b610144600480360381019061013f9190610ed0565b610329565b005b61014e6103c3565b005b61016a60048036038101906101659190610f9f565b6103d7565b005b61018660048036038101906101819190610ed0565b61053e565b6040516101939190611074565b60405180910390f35b6101a4610750565b6040516101b1919061109e565b60405180910390f35b6101d460048036038101906101cf9190610ed0565b610779565b6040516101e494939291906110d7565b60405180910390f35b61020760048036038101906102029190610ed0565b6107c3565b005b610223600480360381019061021e9190610ed0565b61085d565b6040516102309190610f18565b60405180910390f35b610253600480360381019061024e9190610ed0565b61087d565b005b61026f600480360381019061026a9190610ed0565b610917565b60405161027c9190610f18565b60405180910390f35b61029f600480360381019061029a9190610ed0565b61096d565b005b6102bb60048036038101906102b69190610ed0565b610b75565b005b6102d760048036038101906102d29190610ed0565b610c0f565b6040516102e49190610f18565b60405180910390f35b61030760048036038101906103029190610ed0565b610c65565b005b60036020528060005260406000206000915054906101000a900460ff1681565b610331610ceb565b6001600260008373ffffffffffffffffffffffffffffffffffffffff1673ffffffffffffffffffffffffffffffffffffffff16815260200190815260200160002060006101000a81548160ff0219169083151502179055507fecaa94be91f52363cac7b4fad6d035652e40394186fffff4388dc31d3760e724816040516103b8919061109e565b60405180910390a150565b6103cb610ceb565b6103d56000610d72565b565b600260003373ffffffffffffffffffffffffffffffffffffffff1673ffffffffffffffffffffffffffffffffffffffff16815260200190815260200160002060009054906101000a900460ff16610463576040517f08c379a000000000000000000000000000000000000000000000000000000000815260040161045a90611179565b60405180910390fd5b61046b610e3e565b82816000018181525050818160200181815250506000816040019015159081151581525050600181606001901515908115158152505080600160008673ffffffffffffffffffffffffffffffffffffffff1673ffffffffffffffffffffffffffffffffffffffff168152602001908152602001600020600082015181600001556020820151816001015560408201518160020160006101000a81548160ff02191690831515021790555060608201518160020160016101000a81548160ff02191690831515021790555090505050505050565b610546610e3e565b600260003373ffffffffffffffffffffffffffffffffffffffff1673ffffffffffffffffffffffffffffffffffffffff16815260200190815260200160002060009054906101000a900460ff16806105e75750600360003373ffffffffffffffffffffffffffffffffffffffff1673ffffffffffffffffffffffffffffffffffffffff16815260200190815260200160002060009054906101000a900460ff165b610626576040517f08c379a000000000000000000000000000000000000000000000000000000000815260040161061d9061120b565b60405180910390fd5b600160008373ffffffffffffffffffffffffffffffffffffffff1673ffffffffffffffffffffffffffffffffffffffff16815260200190815260200160002060020160019054906101000a900460ff166106b5576040517f08c379a00000000000000000000000000000000000000000000000000000000081526004016106ac90611277565b60405180910390fd5b600160008373ffffffffffffffffffffffffffffffffffffffff1673ffffffffffffffffffffffffffffffffffffffff16815260200190815260200160002060405180608001604052908160008201548152602001600182015481526020016002820160009054906101000a900460ff161515151581526020016002820160019054906101000a900460ff1615151515815250509050919050565b60008060009054906101000a900473ffffffffffffffffffffffffffffffffffffffff16905090565b60016020528060005260406000206000915090508060000154908060010154908060020160009054906101000a900460ff16908060020160019054906101000a900460ff16905084565b6107cb610ceb565b6000600260008373ffffffffffffffffffffffffffffffffffffffff1673ffffffffffffffffffffffffffffffffffffffff16815260200190815260200160002060006101000a81548160ff0219169083151502179055507fc2a76f6ed87dd21aaf60e150509c66564c98ed7f1ea588c08aadf9d0ae3ae55a81604051610852919061109e565b60405180910390a150565b60026020528060005260406000206000915054906101000a900460ff1681565b610885610ceb565b6001600360008373ffffffffffffffffffffffffffffffffffffffff1673ffffffffffffffffffffffffffffffffffffffff16815260200190815260200160002060006101000a81548160ff0219169083151502179055507f5c86b640a0de48cccfd8ecad1403f69614accbda0afff01b35b5c8fcb5a4d0a88160405161090c919061109e565b60405180910390a150565b6000600260008373ffffffffffffffffffffffffffffffffffffffff1673ffffffffffffffffffffffffffffffffffffffff16815260200190815260200160002060009054906101000a900460ff169050919050565b600360003373ffffffffffffffffffffffffffffffffffffffff1673ffffffffffffffffffffffffffffffffffffffff16815260200190815260200160002060009054906101000a900460ff166109f9576040517f08c379a00000000000000000000000000000000000000000000000000000000081526004016109f0906112e3565b60405180910390fd5b600160008273ffffffffffffffffffffffffffffffffffffffff1673ffffffffffffffffffffffffffffffffffffffff16815260200190815260200160002060020160019054906101000a900460ff16610a88576040517f08c379a0000000000000000000000000000000000000000000000000000000008152600401610a7f90611277565b60405180910390fd5b600160008273ffffffffffffffffffffffffffffffffffffffff1673ffffffffffffffffffffffffffffffffffffffff16815260200190815260200160002060020160009054906101000a900460ff1615610b18576040517f08c379a0000000000000000000000000000000000000000000000000000000008152600401610b0f90611375565b60405180910390fd5b60018060008373ffffffffffffffffffffffffffffffffffffffff1673ffffffffffffffffffffffffffffffffffffffff16815260200190815260200160002060020160006101000a81548160ff02191690831515021790555050565b610b7d610ceb565b6000600360008373ffffffffffffffffffffffffffffffffffffffff1673ffffffffffffffffffffffffffffffffffffffff16815260200190815260200160002060006101000a81548160ff0219169083151502179055507f2fa691b51c63ea9fdff2554a6c429eacedbbc8d40546290925e3704d283e973d81604051610c04919061109e565b60405180910390a150565b6000600360008373ffffffffffffffffffffffffffffffffffffffff1673ffffffffffffffffffffffffffffffffffffffff16815260200190815260200160002060009054906101000a900460ff169050919050565b610c6d610ceb565b600073ffffffffffffffffffffffffffffffffffffffff168173ffffffffffffffffffffffffffffffffffffffff1603610cdf5760006040517f1e4fbdf7000000000000000000000000000000000000000000000000000000008152600401610cd6919061109e565b60405180910390fd5b610ce881610d72565b50565b610cf3610e36565b73ffffffffffffffffffffffffffffffffffffffff16610d11610750565b73ffffffffffffffffffffffffffffffffffffffff1614610d7057610d34610e36565b6040517f118cdaa7000000000000000000000000000000000000000000000000000000008152600401610d67919061109e565b60405180910390fd5b565b60008060009054906101000a900473ffffffffffffffffffffffffffffffffffffffff169050816000806101000a81548173ffffffffffffffffffffffffffffffffffffffff021916908373ffffffffffffffffffffffffffffffffffffffff1602179055508173ffffffffffffffffffffffffffffffffffffffff168173ffffffffffffffffffffffffffffffffffffffff167f8be0079c531659141344cd1fd0a4f28419497f9722a3daafe3b4186f6b6457e060405160405180910390a35050565b600033905090565b604051806080016040528060008019168152602001600081526020016000151581526020016000151581525090565b600080fd5b600073ffffffffffffffffffffffffffffffffffffffff82169050919050565b6000610e9d82610e72565b9050919050565b610ead81610e92565b8114610eb857600080fd5b50565b600081359050610eca81610ea4565b92915050565b600060208284031215610ee657610ee5610e6d565b5b6000610ef484828501610ebb565b91505092915050565b60008115159050919050565b610f1281610efd565b82525050565b6000602082019050610f2d6000830184610f09565b92915050565b6000819050919050565b610f4681610f33565b8114610f5157600080fd5b50565b600081359050610f6381610f3d565b92915050565b6000819050919050565b610f7c81610f69565b8114610f8757600080fd5b50565b600081359050610f9981610f73565b92915050565b600080600060608486031215610fb857610fb7610e6d565b5b6000610fc686828701610ebb565b9350506020610fd786828701610f54565b9250506040610fe886828701610f8a565b9150509250925092565b610ffb81610f33565b82525050565b61100a81610f69565b82525050565b61101981610efd565b82525050565b6080820160008201516110356000850182610ff2565b5060208201516110486020850182611001565b50604082015161105b6040850182611010565b50606082015161106e6060850182611010565b50505050565b6000608082019050611089600083018461101f565b92915050565b61109881610e92565b82525050565b60006020820190506110b3600083018461108f565b92915050565b6110c281610f33565b82525050565b6110d181610f69565b82525050565b60006080820190506110ec60008301876110b9565b6110f960208301866110c8565b6111066040830185610f09565b6111136060830184610f09565b95945050505050565b600082825260208201905092915050565b7f596f75277265206e6f74206120646f63746f7200000000000000000000000000600082015250565b600061116360138361111c565b915061116e8261112d565b602082019050919050565b6000602082019050818103600083015261119281611156565b9050919050565b7f596f75277265206e656974686572206120646f63746f72206e6f72206120706860008201527f61726d6163697374000000000000000000000000000000000000000000000000602082015250565b60006111f560288361111c565b915061120082611199565b604082019050919050565b60006020820190508181036000830152611224816111e8565b9050919050565b7f5468697320707265736372697074696f6e20646f6573206e6f74206578697374600082015250565b600061126160208361111c565b915061126c8261122b565b602082019050919050565b6000602082019050818103600083015261129081611254565b9050919050565b7f596f75277265206e6f74206120706861726d6163697374000000000000000000600082015250565b60006112cd60178361111c565b91506112d882611297565b602082019050919050565b600060208201905081810360008301526112fc816112c0565b9050919050565b7f5468697320707265736372697074696f6e2068617320616c726561647920626560008201527f656e2070726f6365737365640000000000000000000000000000000000000000602082015250565b600061135f602c8361111c565b915061136a82611303565b604082019050919050565b6000602082019050818103600083015261138e81611352565b905091905056fea264697066735822122032bb1a3b577854923477db96827ecbe366a0918c85bbb720962b56fca03ca5df64736f6c63430008180033",
  "linkReferences": {},
  "deployedLinkReferences": {}
}